******************************************************************************
                  TI ARM Linker PC v20.2.3                     
******************************************************************************
>> Linked Sun Nov  1 16:32:39 2020

OUTPUT FILE NAME:   <PetraControllerProj.out>
ENTRY POINT SYMBOL: "_c_int00_noargs"  address: 0000159d


MEMORY CONFIGURATION

         name            origin    length      used     unused   attr    fill
----------------------  --------  ---------  --------  --------  ----  --------
  FLASH                 00000000   00100000  000021d0  000fde30  R  X
  SRAM                  20000000   00040000  0000022a  0003fdd6  RW X


SEGMENT ALLOCATION MAP

run origin  load origin   length   init length attrs members
----------  ----------- ---------- ----------- ----- -------
00000000    00000000    000021d8   000021d8    r-x
  00000000    00000000    00000208   00000208    r-- .intvecs
  00000208    00000208    0000145c   0000145c    r-x .text
  00001664    00001664    00000030   00000030    r-- .const
  00001694    00001694    0000033c   0000033c    r-x .text.SysCtlClockFreqSet
  000019d0    000019d0    000002a4   000002a4    r-x .text.GPIOPadConfigSet
  00001c74    00001c74    000001b0   000001b0    r-- .rodata.g_pppui32XTALtoVCO
  00001e24    00001e24    0000013c   0000013c    r-x .text.ADCSequenceStepConfigure
  00001f60    00001f60    0000009c   0000009c    r-x .text._SysCtlFrequencyGet
  00001ffc    00001ffc    00000076   00000076    r-x .text.GPIODirModeSet
  00002074    00002074    00000048   00000048    r-x .text._SysCtlMemTimingGet
  000020bc    000020bc    00000030   00000030    r-- .rodata.g_sXTALtoMEMTIM
  000020ec    000020ec    0000002c   0000002c    r-x .text.GPIOPinTypeEthernetLED
  00002118    00002118    0000002c   0000002c    r-x .text.GPIOPinWrite
  00002144    00002144    00000028   00000028    r-- .rodata.g_pui32Xtals
  0000216c    0000216c    00000024   00000024    r-x .text.GPIOPinRead
  00002190    00002190    0000000a   0000000a    r-x .text.SysCtlDelay
  0000219c    0000219c    00000008   00000008    r-- .rodata.g_pui32VCOFrequencies
  000021a8    000021a8    00000030   00000030    r-- .cinit
20000000    20000000    0000022a   00000000    rw-
  20000000    20000000    00000200   00000000    rw- .stack
  20000200    20000200    00000018   00000000    rw- .data
  20000218    20000218    00000012   00000000    rw- .bss


SECTION ALLOCATION MAP

 output                                  attributes/
section   page    origin      length       input sections
--------  ----  ----------  ----------   ----------------
.intvecs   0    00000000    00000208     
                  00000000    00000208     startup_msp432e401y_ccs.obj (.intvecs:retain)

.text      0    00000208    0000145c     
                  00000208    000004dc     uartstdio.obj (.text)
                  000006e4    0000035c     pinout.obj (.text)
                  00000a40    000002e0     i2c.obj (.text)
                  00000d20    000002b4     acc.obj (.text)
                  00000fd4    000001c8     PetraContMain.obj (.text)
                  0000119c    0000011c     system_msp432e401y.obj (.text)
                  000012b8    000000f0     DataLog.obj (.text)
                  000013a8    0000009c     rtsv7M4_T_le_v4SPD16_eabi.lib : memcpy_t2.asm.obj (.text)
                  00001444    0000006c     uart.obj (.text)
                  000014b0    00000068     rtsv7M4_T_le_v4SPD16_eabi.lib : copy_decompress_lzss.c.obj (.text:decompress:lzss:__TI_decompress_lzss)
                  00001518    00000044                                   : autoinit.c.obj (.text:__TI_auto_init_nobinit_nopinit:__TI_auto_init_nobinit_nopinit)
                  0000155c    00000040                                   : u_divt2.asm.obj (.text)
                  0000159c    00000034                                   : boot_cortex_m.c.obj (.text:_c_int00_noargs:_c_int00_noargs)
                  000015d0    00000028     startup_msp432e401y_ccs.obj (.text)
                  000015f8    0000001c     rtsv7M4_T_le_v4SPD16_eabi.lib : copy_zero_init.c.obj (.text:decompress:ZI:__TI_zero_init_nomemset:__TI_zero_init_nomemset)
                  00001614    0000000e                                   : copy_decompress_none.c.obj (.text:decompress:none:__TI_decompress_none)
                  00001622    00000004                                   : pre_init.c.obj (.text:_system_pre_init)
                  00001626    00000004                                   : exit.c.obj (.text:abort:abort)
                  0000162a    00000002                                   : div0.asm.obj (.text)
                  0000162c    00000008     msp432e4_driverlib.a : sysctl.o (.tramp.SysCtlDelay.1)
                  00001634    00000008                          : sysctl.o (.tramp.SysCtlClockFreqSet.1)
                  0000163c    00000008                          : adc.o (.tramp.ADCSequenceStepConfigure.1)
                  00001644    00000008                          : gpio.o (.tramp.GPIOPinRead.1)
                  0000164c    00000008                          : gpio.o (.tramp.GPIOPinWrite.1)
                  00001654    00000008                          : gpio.o (.tramp.GPIOPinTypeEthernetLED.1)
                  0000165c    00000008                          : gpio.o (.tramp.GPIOPadConfigSet.1)

.const     0    00001664    00000030     
                  00001664    00000012     uartstdio.obj (.const:.string)
                  00001676    00000002     --HOLE-- [fill = 0]
                  00001678    0000000c     uartstdio.obj (.const:g_ui32UARTBase)
                  00001684    0000000c     uartstdio.obj (.const:g_ui32UARTPeriph)
                  00001690    00000004     uartstdio.obj (.const)

.cinit     0    000021a8    00000030     
                  000021a8    0000000c     (__TI_handler_table)
                  000021b4    0000000b     (.cinit..data.load) [load image, compression = lzss]
                  000021bf    00000001     --HOLE-- [fill = 0]
                  000021c0    00000008     (.cinit..bss.load) [load image, compression = zero_init]
                  000021c8    00000010     (__TI_cinit_table)

.init_array 
*          0    00000000    00000000     UNINITIALIZED

.data      0    20000200    00000018     UNINITIALIZED
                  20000200    00000005     uartstdio.obj (.data)
                  20000205    00000004     i2c.obj (.data:getData)
                  20000209    00000003     --HOLE--
                  2000020c    00000004     i2c.obj (.data)
                  20000210    00000004     system_msp432e401y.obj (.data)
                  20000214    00000004     uart.obj (.data)

.bss       0    20000218    00000012     UNINITIALIZED
                  20000218    00000010     (.common:getADCValue)
                  20000228    00000001     (.common:dataIndex)
                  20000229    00000001     (.common:setI2CState)

.stack     0    20000000    00000200     UNINITIALIZED
                  20000000    00000004     rtsv7M4_T_le_v4SPD16_eabi.lib : boot_cortex_m.c.obj (.stack)
                  20000004    000001fc     --HOLE--

__llvm_prf_cnts 
*          0    20000000    00000000     UNINITIALIZED

.text.SysCtlClockFreqSet 
*          0    00001694    0000033c     
                  00001694    0000032c     msp432e4_driverlib.a : sysctl.o (.text.SysCtlClockFreqSet)
                  000019c0    00000008                          : sysctl.o (.tramp._SysCtlFrequencyGet.1)
                  000019c8    00000008                          : sysctl.o (.tramp._SysCtlMemTimingGet.1)

.text.GPIOPadConfigSet 
*          0    000019d0    000002a4     
                  000019d0    000002a4     msp432e4_driverlib.a : gpio.o (.text.GPIOPadConfigSet)

.rodata.g_pppui32XTALtoVCO 
*          0    00001c74    000001b0     
                  00001c74    000001b0     msp432e4_driverlib.a : sysctl.o (.rodata.g_pppui32XTALtoVCO)

.text.ADCSequenceStepConfigure 
*          0    00001e24    0000013c     
                  00001e24    0000013c     msp432e4_driverlib.a : adc.o (.text.ADCSequenceStepConfigure)

.text._SysCtlFrequencyGet 
*          0    00001f60    0000009c     
                  00001f60    0000009c     msp432e4_driverlib.a : sysctl.o (.text._SysCtlFrequencyGet)

.text.GPIODirModeSet 
*          0    00001ffc    00000076     
                  00001ffc    00000076     msp432e4_driverlib.a : gpio.o (.text.GPIODirModeSet)

.text._SysCtlMemTimingGet 
*          0    00002074    00000048     
                  00002074    00000048     msp432e4_driverlib.a : sysctl.o (.text._SysCtlMemTimingGet)

.rodata.g_sXTALtoMEMTIM 
*          0    000020bc    00000030     
                  000020bc    00000030     msp432e4_driverlib.a : sysctl.o (.rodata.g_sXTALtoMEMTIM)

.text.GPIOPinTypeEthernetLED 
*          0    000020ec    0000002c     
                  000020ec    0000002c     msp432e4_driverlib.a : gpio.o (.text.GPIOPinTypeEthernetLED)

.text.GPIOPinWrite 
*          0    00002118    0000002c     
                  00002118    0000002c     msp432e4_driverlib.a : gpio.o (.text.GPIOPinWrite)

.rodata.g_pui32Xtals 
*          0    00002144    00000028     
                  00002144    00000028     msp432e4_driverlib.a : sysctl.o (.rodata.g_pui32Xtals)

.text.GPIOPinRead 
*          0    0000216c    00000024     
                  0000216c    00000024     msp432e4_driverlib.a : gpio.o (.text.GPIOPinRead)

.text.SysCtlDelay 
*          0    00002190    0000000a     
                  00002190    0000000a     msp432e4_driverlib.a : sysctl.o (.text.SysCtlDelay)

.rodata.g_pui32VCOFrequencies 
*          0    0000219c    00000008     
                  0000219c    00000008     msp432e4_driverlib.a : sysctl.o (.rodata.g_pui32VCOFrequencies)

MODULE SUMMARY

       Module                        code   ro data   rw data
       ------                        ----   -------   -------
    .\
       PetraContMain.obj             456    0         0      
       system_msp432e401y.obj        284    0         4      
    +--+-----------------------------+------+---------+---------+
       Total:                        740    0         4      
                                                             
    .\ConfigInits\
       i2c.obj                       736    0         10     
       acc.obj                       692    0         16     
       uart.obj                      108    0         4      
    +--+-----------------------------+------+---------+---------+
       Total:                        1536   0         30     
                                                             
    .\DataLog\
       DataLog.obj                   240    0         0      
    +--+-----------------------------+------+---------+---------+
       Total:                        240    0         0      
                                                             
    .\gcc\
       startup_msp432e401y_ccs.obj   40     520       0      
    +--+-----------------------------+------+---------+---------+
       Total:                        40     520       0      
                                                             
    .\tiUtils\
       uartstdio.obj                 1244   46        5      
       pinout.obj                    860    0         0      
    +--+-----------------------------+------+---------+---------+
       Total:                        2104   46        5      
                                                             
    Z:/ProgOverFlow/ti/ccs1010/simplelink_msp432e4_sdk_4_20_00_12/source/ti/devices/msp432e4/driverlib/lib/gcc/m4f/msp432e4_driverlib.a
       sysctl.o                      1082   528       0      
       gpio.o                        950    0         0      
       adc.o                         324    0         0      
    +--+-----------------------------+------+---------+---------+
       Total:                        2356   528       0      
                                                             
    Z:\ProgOverFlow\ti\ccs1010\ccs\tools\compiler\ti-cgt-arm_20.2.3.LTS\lib\rtsv7M4_T_le_v4SPD16_eabi.lib
       memcpy_t2.asm.obj             156    0         0      
       copy_decompress_lzss.c.obj    104    0         0      
       autoinit.c.obj                68     0         0      
       u_divt2.asm.obj               64     0         0      
       boot_cortex_m.c.obj           52     0         0      
       copy_zero_init.c.obj          28     0         0      
       copy_decompress_none.c.obj    14     0         0      
       exit.c.obj                    4      0         0      
       pre_init.c.obj                4      0         0      
       div0.asm.obj                  2      0         0      
    +--+-----------------------------+------+---------+---------+
       Total:                        496    0         0      
                                                             
       Stack:                        0      0         512    
       Linker Generated:             0      47        0      
    +--+-----------------------------+------+---------+---------+
       Grand Total:                  7512   1141      551    


LINKER GENERATED COPY TABLES

__TI_cinit_table @ 000021c8 records: 2, size/record: 8, table size: 16
	.data: load addr=000021b4, load size=0000000b bytes, run addr=20000200, run size=00000018 bytes, compression=lzss
	.bss: load addr=000021c0, load size=00000008 bytes, run addr=20000218, run size=00000012 bytes, compression=zero_init


LINKER GENERATED HANDLER TABLE

__TI_handler_table @ 000021a8 records: 3, size/record: 4, table size: 12
	index: 0, handler: __TI_decompress_lzss
	index: 1, handler: __TI_decompress_none
	index: 2, handler: __TI_zero_init


FAR CALL TRAMPOLINES

callee name               trampoline name
   callee addr  tramp addr   call addr  call info
--------------  -----------  ---------  ----------------
SysCtlDelay               $Tramp$TT$S$$SysCtlDelay
   00002191     0000162c     000010d0   PetraContMain.obj (.text)
                             000010e6   PetraContMain.obj (.text)
SysCtlClockFreqSet        $Tramp$TT$S$$SysCtlClockFreqSet
   00001695     00001634     00000fda   PetraContMain.obj (.text)
ADCSequenceStepConfigure  $Tramp$TT$S$$ADCSequenceStepConfigure
   00001e25     0000163c     00000d9e   acc.obj (.text)
                             00000daa   acc.obj (.text)
                             00000db6   acc.obj (.text)
GPIOPinRead               $Tramp$TT$S$$GPIOPinRead
   0000216d     00001644     00000978   pinout.obj (.text)
                             0000098c   pinout.obj (.text)
                             000009a0   pinout.obj (.text)
                             000009b4   pinout.obj (.text)
GPIOPinWrite              $Tramp$TT$S$$GPIOPinWrite
   00002119     0000164c     000008f2   pinout.obj (.text)
                             000008fe   pinout.obj (.text)
                             00000914   pinout.obj (.text)
                             00000920   pinout.obj (.text)
                             00000936   pinout.obj (.text)
                             00000942   pinout.obj (.text)
                             00000958   pinout.obj (.text)
                             00000964   pinout.obj (.text)
GPIOPinTypeEthernetLED    $Tramp$TT$S$$GPIOPinTypeEthernetLED
   000020ed     00001654     00000860   pinout.obj (.text)
GPIOPadConfigSet          $Tramp$TT$S$$GPIOPadConfigSet
   000019d1     0000165c     00000838   pinout.obj (.text)
                             0000088c   pinout.obj (.text)
                             000008c4   pinout.obj (.text)
_SysCtlFrequencyGet       $Tramp$TT$S$$_SysCtlFrequencyGet
   00001f61     000019c0     00001844   msp432e4_driverlib.a : sysctl.o (.text.SysCtlClockFreqSet)
_SysCtlMemTimingGet       $Tramp$TT$S$$_SysCtlMemTimingGet
   00002075     000019c8     000017a8   msp432e4_driverlib.a : sysctl.o (.text.SysCtlClockFreqSet)
                             00001852                        : sysctl.o (.text.SysCtlClockFreqSet)
                             000018da                        : sysctl.o (.text.SysCtlClockFreqSet)
                             00001976                        : sysctl.o (.text.SysCtlClockFreqSet)

[9 trampolines]
[27 trampoline calls]


GLOBAL SYMBOLS: SORTED ALPHABETICALLY BY Name 

address   name                          
-------   ----                          
000015dd  ADC0SS0_IRQHandler            
000015dd  ADC0SS1_IRQHandler            
000015dd  ADC0SS2_IRQHandler            
000015dd  ADC0SS3_IRQHandler            
000015dd  ADC1SS0_IRQHandler            
000015dd  ADC1SS1_IRQHandler            
000015dd  ADC1SS2_IRQHandler            
000015dd  ADC1SS3_IRQHandler            
00001e25  ADCSequenceStepConfigure      
000015dd  AES0_IRQHandler               
000015dd  BusFault_Handler              
00001627  C$$EXIT                       
000015dd  CAN0_IRQHandler               
000015dd  CAN1_IRQHandler               
000015dd  COMP0_IRQHandler              
000015dd  COMP1_IRQHandler              
000015dd  COMP2_IRQHandler              
000015dd  DES0_IRQHandler               
000015dd  DebugMon_Handler              
000015dd  Default_Handler               
000015dd  EMAC0_IRQHandler              
000015dd  EPI0_IRQHandler               
000015dd  FLASH_IRQHandler              
000015dd  GPIOA_IRQHandler              
000015dd  GPIOB_IRQHandler              
000015dd  GPIOC_IRQHandler              
000015dd  GPIOD_IRQHandler              
00001ffd  GPIODirModeSet                
000015dd  GPIOE_IRQHandler              
000015dd  GPIOF_IRQHandler              
000015dd  GPIOG_IRQHandler              
000015dd  GPIOH_IRQHandler              
000015dd  GPIOJ_IRQHandler              
000015dd  GPIOK_IRQHandler              
000015dd  GPIOL_IRQHandler              
000015dd  GPIOM_IRQHandler              
000015dd  GPION_IRQHandler              
000015dd  GPIOP0_IRQHandler             
000015dd  GPIOP1_IRQHandler             
000015dd  GPIOP2_IRQHandler             
000015dd  GPIOP3_IRQHandler             
000015dd  GPIOP4_IRQHandler             
000015dd  GPIOP5_IRQHandler             
000015dd  GPIOP6_IRQHandler             
000015dd  GPIOP7_IRQHandler             
000019d1  GPIOPadConfigSet              
0000216d  GPIOPinRead                   
000020ed  GPIOPinTypeEthernetLED        
00002119  GPIOPinWrite                  
000015dd  GPIOQ0_IRQHandler             
000015dd  GPIOQ1_IRQHandler             
000015dd  GPIOQ2_IRQHandler             
000015dd  GPIOQ3_IRQHandler             
000015dd  GPIOQ4_IRQHandler             
000015dd  GPIOQ5_IRQHandler             
000015dd  GPIOQ6_IRQHandler             
000015dd  GPIOQ7_IRQHandler             
000015dd  HIBERNATE_IRQHandler          
000015dd  HardFault_Handler             
000015dd  I2C0_IRQHandler               
000015dd  I2C1_IRQHandler               
000015dd  I2C2_IRQHandler               
000015dd  I2C3_IRQHandler               
000015dd  I2C4_IRQHandler               
000015dd  I2C5_IRQHandler               
000015dd  I2C6_IRQHandler               
000015dd  I2C7_IRQHandler               
000015dd  I2C8_IRQHandler               
000015dd  I2C9_IRQHandler               
0000096b  LEDRead                       
000008db  LEDWrite                      
000015dd  MemManage_Handler             
000015dd  NMI_Handler                   
000015dd  PWM0_0_IRQHandler             
000015dd  PWM0_1_IRQHandler             
000015dd  PWM0_2_IRQHandler             
000015dd  PWM0_3_IRQHandler             
000015dd  PWM0_FAULT_IRQHandler         
000015dd  PendSV_Handler                
000006e5  PinoutSet                     
000015dd  QEI0_IRQHandler               
000015d1  Reset_Handler                 
000015dd  SHA0_IRQHandler               
000015dd  SSI0_IRQHandler               
000015dd  SSI1_IRQHandler               
000015dd  SSI2_IRQHandler               
000015dd  SSI3_IRQHandler               
000015dd  SVC_Handler                   
000015dd  SYSCTL_IRQHandler             
000015dd  SYSEXC_IRQHandler             
00001695  SysCtlClockFreqSet            
00002191  SysCtlDelay                   
000015dd  SysTick_Handler               
20000210  SystemCoreClock               
0000119d  SystemCoreClockUpdate         
0000128b  SystemInit                    
000015dd  TAMPER0_IRQHandler            
000015dd  TIMER0A_IRQHandler            
000015dd  TIMER0B_IRQHandler            
000015dd  TIMER1A_IRQHandler            
000015dd  TIMER1B_IRQHandler            
000015dd  TIMER2A_IRQHandler            
000015dd  TIMER2B_IRQHandler            
000015dd  TIMER3A_IRQHandler            
000015dd  TIMER3B_IRQHandler            
000015dd  TIMER4A_IRQHandler            
000015dd  TIMER4B_IRQHandler            
000015dd  TIMER5A_IRQHandler            
000015dd  TIMER5B_IRQHandler            
000015dd  TIMER6A_IRQHandler            
000015dd  TIMER6B_IRQHandler            
000015dd  TIMER7A_IRQHandler            
000015dd  TIMER7B_IRQHandler            
000015dd  UART0_IRQHandler              
000015dd  UART1_IRQHandler              
000015dd  UART2_IRQHandler              
000015dd  UART3_IRQHandler              
000015dd  UART4_IRQHandler              
000015dd  UART5_IRQHandler              
000015dd  UART6_IRQHandler              
000015dd  UART7_IRQHandler              
00000209  UARTStdioConfig               
00000381  UARTgetc                      
000002bb  UARTgets                      
000006af  UARTprintf                    
000003b5  UARTvprintf                   
00000269  UARTwrite                     
000015dd  UDMAERR_IRQHandler            
000015dd  UDMA_IRQHandler               
000015dd  USB0_IRQHandler               
000015dd  UsageFault_Handler            
000015dd  WATCHDOG_IRQHandler           
00000ff9  _Z10sdCardInitv               
00001445  _Z13ConfigureUARTv            
00000b21  _Z15I2C1_IRQHandlerv          
00000e0d  _Z6accIsrv                    
00000fef  _Z6spInitv                    
00000e03  _Z7accInitv                   
00000d21  _Z7adcInitv                   
00000fd5  _Z7cpuInitv                   
00000a4b  _Z7i2cInitv                   
00000fe5  _Z7usbInitv                   
00000a41  _Z8gyroInitv                  
0000133d  _ZN7DataLogC1Ev               
000012b9  _ZN7DataLogC1Eyffffff         
0000133d  _ZN7DataLogC2Ev               
000012b9  _ZN7DataLogC2Eyffffff         
20000200  __STACK_END                   
00000200  __STACK_SIZE                  
20000200  __STACK_TOP                   
000021c8  __TI_CINIT_Base               
000021d8  __TI_CINIT_Limit              
000021a8  __TI_Handler_Table_Base       
000021b4  __TI_Handler_Table_Limit      
00001519  __TI_auto_init_nobinit_nopinit
000014b1  __TI_decompress_lzss          
00001615  __TI_decompress_none          
ffffffff  __TI_pprof_out_hndl           
ffffffff  __TI_prof_data_size           
ffffffff  __TI_prof_data_start          
00000000  __TI_static_base__            
000015f9  __TI_zero_init_nomemset       
0000162b  __aeabi_idiv0                 
0000162b  __aeabi_ldiv0                 
000013a9  __aeabi_memcpy                
000013a9  __aeabi_memcpy4               
000013a9  __aeabi_memcpy8               
0000155d  __aeabi_uidiv                 
0000155d  __aeabi_uidivmod              
ffffffff  __binit__                     
ffffffff  __c_args__                    
UNDEFED   __mpu_init                    
20000000  __stack                       
20000000  __start___llvm_prf_cnts       
20000000  __stop___llvm_prf_cnts        
0000159d  _c_int00_noargs               
UNDEFED   _system_post_cinit            
00001623  _system_pre_init              
00001627  abort                         
ffffffff  binit                         
20000228  dataIndex                     
20000214  g_ui32SysClock                
20000218  getADCValue                   
20000205  getData                       
00000000  interruptVectors              
00001003  main                          
000013a9  memcpy                        
20000229  setI2CState                   
2000020c  systemClock                   


GLOBAL SYMBOLS: SORTED BY Symbol Address 

address   name                          
-------   ----                          
00000000  __TI_static_base__            
00000000  interruptVectors              
00000200  __STACK_SIZE                  
00000209  UARTStdioConfig               
00000269  UARTwrite                     
000002bb  UARTgets                      
00000381  UARTgetc                      
000003b5  UARTvprintf                   
000006af  UARTprintf                    
000006e5  PinoutSet                     
000008db  LEDWrite                      
0000096b  LEDRead                       
00000a41  _Z8gyroInitv                  
00000a4b  _Z7i2cInitv                   
00000b21  _Z15I2C1_IRQHandlerv          
00000d21  _Z7adcInitv                   
00000e03  _Z7accInitv                   
00000e0d  _Z6accIsrv                    
00000fd5  _Z7cpuInitv                   
00000fe5  _Z7usbInitv                   
00000fef  _Z6spInitv                    
00000ff9  _Z10sdCardInitv               
00001003  main                          
0000119d  SystemCoreClockUpdate         
0000128b  SystemInit                    
000012b9  _ZN7DataLogC1Eyffffff         
000012b9  _ZN7DataLogC2Eyffffff         
0000133d  _ZN7DataLogC1Ev               
0000133d  _ZN7DataLogC2Ev               
000013a9  __aeabi_memcpy                
000013a9  __aeabi_memcpy4               
000013a9  __aeabi_memcpy8               
000013a9  memcpy                        
00001445  _Z13ConfigureUARTv            
000014b1  __TI_decompress_lzss          
00001519  __TI_auto_init_nobinit_nopinit
0000155d  __aeabi_uidiv                 
0000155d  __aeabi_uidivmod              
0000159d  _c_int00_noargs               
000015d1  Reset_Handler                 
000015dd  ADC0SS0_IRQHandler            
000015dd  ADC0SS1_IRQHandler            
000015dd  ADC0SS2_IRQHandler            
000015dd  ADC0SS3_IRQHandler            
000015dd  ADC1SS0_IRQHandler            
000015dd  ADC1SS1_IRQHandler            
000015dd  ADC1SS2_IRQHandler            
000015dd  ADC1SS3_IRQHandler            
000015dd  AES0_IRQHandler               
000015dd  BusFault_Handler              
000015dd  CAN0_IRQHandler               
000015dd  CAN1_IRQHandler               
000015dd  COMP0_IRQHandler              
000015dd  COMP1_IRQHandler              
000015dd  COMP2_IRQHandler              
000015dd  DES0_IRQHandler               
000015dd  DebugMon_Handler              
000015dd  Default_Handler               
000015dd  EMAC0_IRQHandler              
000015dd  EPI0_IRQHandler               
000015dd  FLASH_IRQHandler              
000015dd  GPIOA_IRQHandler              
000015dd  GPIOB_IRQHandler              
000015dd  GPIOC_IRQHandler              
000015dd  GPIOD_IRQHandler              
000015dd  GPIOE_IRQHandler              
000015dd  GPIOF_IRQHandler              
000015dd  GPIOG_IRQHandler              
000015dd  GPIOH_IRQHandler              
000015dd  GPIOJ_IRQHandler              
000015dd  GPIOK_IRQHandler              
000015dd  GPIOL_IRQHandler              
000015dd  GPIOM_IRQHandler              
000015dd  GPION_IRQHandler              
000015dd  GPIOP0_IRQHandler             
000015dd  GPIOP1_IRQHandler             
000015dd  GPIOP2_IRQHandler             
000015dd  GPIOP3_IRQHandler             
000015dd  GPIOP4_IRQHandler             
000015dd  GPIOP5_IRQHandler             
000015dd  GPIOP6_IRQHandler             
000015dd  GPIOP7_IRQHandler             
000015dd  GPIOQ0_IRQHandler             
000015dd  GPIOQ1_IRQHandler             
000015dd  GPIOQ2_IRQHandler             
000015dd  GPIOQ3_IRQHandler             
000015dd  GPIOQ4_IRQHandler             
000015dd  GPIOQ5_IRQHandler             
000015dd  GPIOQ6_IRQHandler             
000015dd  GPIOQ7_IRQHandler             
000015dd  HIBERNATE_IRQHandler          
000015dd  HardFault_Handler             
000015dd  I2C0_IRQHandler               
000015dd  I2C1_IRQHandler               
000015dd  I2C2_IRQHandler               
000015dd  I2C3_IRQHandler               
000015dd  I2C4_IRQHandler               
000015dd  I2C5_IRQHandler               
000015dd  I2C6_IRQHandler               
000015dd  I2C7_IRQHandler               
000015dd  I2C8_IRQHandler               
000015dd  I2C9_IRQHandler               
000015dd  MemManage_Handler             
000015dd  NMI_Handler                   
000015dd  PWM0_0_IRQHandler             
000015dd  PWM0_1_IRQHandler             
000015dd  PWM0_2_IRQHandler             
000015dd  PWM0_3_IRQHandler             
000015dd  PWM0_FAULT_IRQHandler         
000015dd  PendSV_Handler                
000015dd  QEI0_IRQHandler               
000015dd  SHA0_IRQHandler               
000015dd  SSI0_IRQHandler               
000015dd  SSI1_IRQHandler               
000015dd  SSI2_IRQHandler               
000015dd  SSI3_IRQHandler               
000015dd  SVC_Handler                   
000015dd  SYSCTL_IRQHandler             
000015dd  SYSEXC_IRQHandler             
000015dd  SysTick_Handler               
000015dd  TAMPER0_IRQHandler            
000015dd  TIMER0A_IRQHandler            
000015dd  TIMER0B_IRQHandler            
000015dd  TIMER1A_IRQHandler            
000015dd  TIMER1B_IRQHandler            
000015dd  TIMER2A_IRQHandler            
000015dd  TIMER2B_IRQHandler            
000015dd  TIMER3A_IRQHandler            
000015dd  TIMER3B_IRQHandler            
000015dd  TIMER4A_IRQHandler            
000015dd  TIMER4B_IRQHandler            
000015dd  TIMER5A_IRQHandler            
000015dd  TIMER5B_IRQHandler            
000015dd  TIMER6A_IRQHandler            
000015dd  TIMER6B_IRQHandler            
000015dd  TIMER7A_IRQHandler            
000015dd  TIMER7B_IRQHandler            
000015dd  UART0_IRQHandler              
000015dd  UART1_IRQHandler              
000015dd  UART2_IRQHandler              
000015dd  UART3_IRQHandler              
000015dd  UART4_IRQHandler              
000015dd  UART5_IRQHandler              
000015dd  UART6_IRQHandler              
000015dd  UART7_IRQHandler              
000015dd  UDMAERR_IRQHandler            
000015dd  UDMA_IRQHandler               
000015dd  USB0_IRQHandler               
000015dd  UsageFault_Handler            
000015dd  WATCHDOG_IRQHandler           
000015f9  __TI_zero_init_nomemset       
00001615  __TI_decompress_none          
00001623  _system_pre_init              
00001627  C$$EXIT                       
00001627  abort                         
0000162b  __aeabi_idiv0                 
0000162b  __aeabi_ldiv0                 
00001695  SysCtlClockFreqSet            
000019d1  GPIOPadConfigSet              
00001e25  ADCSequenceStepConfigure      
00001ffd  GPIODirModeSet                
000020ed  GPIOPinTypeEthernetLED        
00002119  GPIOPinWrite                  
0000216d  GPIOPinRead                   
00002191  SysCtlDelay                   
000021a8  __TI_Handler_Table_Base       
000021b4  __TI_Handler_Table_Limit      
000021c8  __TI_CINIT_Base               
000021d8  __TI_CINIT_Limit              
20000000  __stack                       
20000000  __start___llvm_prf_cnts       
20000000  __stop___llvm_prf_cnts        
20000200  __STACK_END                   
20000200  __STACK_TOP                   
20000205  getData                       
2000020c  systemClock                   
20000210  SystemCoreClock               
20000214  g_ui32SysClock                
20000218  getADCValue                   
20000228  dataIndex                     
20000229  setI2CState                   
ffffffff  __TI_pprof_out_hndl           
ffffffff  __TI_prof_data_size           
ffffffff  __TI_prof_data_start          
ffffffff  __binit__                     
ffffffff  __c_args__                    
ffffffff  binit                         
UNDEFED   __mpu_init                    
UNDEFED   _system_post_cinit            

[189 symbols]
